S00D00004C616230362E73726563A2
S11300000C9434000C9451000C9451000C94510045
S11300100C9451000C9451000C9451000C94510018
S11300200C9451000C9451000C9451000C94510008
S11300300C9451000C9451000C9451000C945100F8
S11300400C9451000C9451000C941F010C94510019
S11300500C9451000C9476010C9451000C945100B2
S11300600C9451000C94510011241FBECFEFD8E022
S1130070DEBFCDBF11E0A0E0B1E0E8EBF3E002C0E9
S113008005900D92A839B107D9F721E0A8E9B1E0AC
S113009001C01D92AB39B207E1F70E94A8000C948D
S11300A0DA010C940000CF93DF938AB18E7F8AB972
S11300B08AB181608AB9C0ECD0E01882A1ECB0E0CA
S11300C01C92E2ECF0E01082888188838C9188692C
S11300D08C9380818660808387E690E09093C5004E
S11300E08093C400DF91CF910895ECE7F0E0108293
S11300F0808180668083EAE7F0E0108280818068F6
S11301008083808188608083808187608083089574
S11301109091C00095FFFCCF8093C60008950F9383
S11301201F93CF938C01C0E003C00E948800CF5F6F
S1130130F801EC0FF11D80818111F7CF8AE00E9454
S113014088008DE00E948800CF911F910F9108953F
S1130150F8940E9453000E947500789410929801BC
S113016081E091E00E948F0088E191E00E948F007D
S113017080919801813321F0809198018233C1F7F5
S113018080919801813329F4EAE7F0E0808180646A
S1130190808310920001809100018823E1F3DECF77
S11301A0CF93DF932DEC829FC12D1124C695C69564
S11301B0C695CC0F9C2F990F990FC90F982F9C1B94
S11301C0C92F90E08C1B9109EAE0F0E0BF010E9486
S11301D0B201629FD12D1124D695D695D695DD0F07
S11301E08D2F880F880FD80F862F8D1BD82F772738
S11301F0CB018D1B9109BF010E94B201629F812D29
S11302001124869586958695880F282F220F220F14
S1130210820F681B862F805D0E94880080E38D0F0B
S11302200E94880080E38C0F0E9488008AE00E946C
S113023088008DE00E948800DF91CF9108951F927D
S11302400F920FB60F9211242F933F934F935F9306
S11302506F937F938F939F93AF93BF93EF93FF938A
S11302608091C600809399018091990180939801AF
S1130270809100018130B1F480919801813329F497
S113028089E291E00E948F000DC080919801823331
S113029029F482E491E00E948F0004C086E791E093
S11302A00E948F008091000181110FC080919901FB
S11302B08295880F880F807C8BB9809199018695EF
S11302C0869585B981E080930001FF91EF91BF91FC
S11302D0AF919F918F917F916F915F914F913F91DA
S11302E02F910F900FBE0F901F9018951F920F9291
S11302F00FB60F9211242F933F934F935F936F93F5
S11303007F938F939F93AF93BF93EF93FF938091CA
S1130310790080939A010E94D00080919A0182957D
S1130320880F880F807C8BB980919A018695869579
S113033085B9EAE7F0E080818061808381E0809381
S11303400001FF91EF91BF91AF919F918F917F91A8
S11303506F915F914F913F912F910F900FBE0F902E
S11303601F90189597FB072E16F4009407D077FD7D
S113037009D00E94C60107FC05D03EF490958195F2
S11303809F4F0895709561957F4F0895AA1BBB1BDD
S113039051E107C0AA1FBB1FA617B70710F0A61B81
S11303A0B70B881F991F5A95A9F780959095BC01A2
S10B03B0CD010895F894FFCF7C
S11303B801312E204C65657220706F74656E636917
S11303C8F36D6574726F2E00322E20456E76696166
S11303D8722041534349492E004C6579656E646F18
S11303E820706F74656E6369F36D6574726F2E2E79
S11303F82E004C6579656E646F204153434949204A
S11304086465736465207465726D696E616C2E2E03
S11304182E200A0D496E677265736520415343495E
S1130428492E2E2E0A00456E747261646120696E2D
S113043876E16C6964612E20496E67726573652084
S10B044831206F20322E000068
S9030000FC
