S00D00004C616230362E73726563A2
S11300000C9434000C9451000C9451000C94510045
S11300100C9451000C9451000C9451000C94510018
S11300200C9451000C9451000C9451000C94510008
S11300300C9451000C9451000C9451000C945100F8
S11300400C9451000C9451000C941E010C9451001A
S11300500C9451000C9469010C9451000C945100BF
S11300600C9451000C94510011241FBECFEFD8E022
S1130070DEBFCDBF11E0A0E0B1E0E8E5F3E002C0EF
S113008005900D92AA34B107D9F721E0AAE4B1E0B2
S113009001C01D92AD34B207E1F70E94F7000C9441
S11300A0AA010C940000CF93DF938AB18E7F8AB9A2
S11300B08AB181608AB9C0ECD0E01882A1ECB0E0CA
S11300C01C92E2ECF0E01082888188838C9188692C
S11300D08C9380818660808387E690E09093C5004E
S11300E08093C400DF91CF910895ECE7F0E0108293
S11300F0808180668083EAE7F0E0108280818068F6
S11301008083808188608083808180648083808113
S11301108760808380818064808308959091C0008B
S113012095FFFCCF8093C60008950F931F93CF9340
S11301308C01C0E003C00E948E00CF5FF801EC0F79
S1130140F11D80818111F7CF8AE00E948E00CF914A
S11301501F910F910895CF93DF932DEC829FC12DB2
S11301601124C695C695C695CC0F9C2F990F990F4F
S1130170C90F982F9C1BC92F90E08C1B9109EAE0B2
S1130180F0E0BF010E948201629FD12D1124D69517
S1130190D695D695DD0F8D2F880F880FD80F862F13
S11301A08D1BD82F7727CB018D1B9109BF010E948E
S11301B08201629F812D1124869586958695880FEC
S11301C0282F220F220F820F681B862F805D0E942A
S11301D08E0080E38D0F0E948E0080E38C0F0E94BE
S11301E08E008AE00E948E00DF91CF910895F894EA
S11301F00E9453000E947500789410924B018091E4
S11302004C018295880F880F807C8BB980914C01BA
S11302108695869585B980914C010E94AB00EAE7EA
S1130220F0E08081806480832FEF81EE94E02150A0
S113023080409040E1F700C00000DFCF1F920F9292
S11302400FB60F9211242F933F934F935F936F93A5
S11302507F938F939F93AF93BF93EF93FF9380917B
S1130260C60080934B0180914B0180934A01809199
S11302704A01813021F480914A01823021F088E2E0
S113028091E00E94950080914B018295880F880F20
S1130290807C8BB980914B018695869585B92FEF2B
S11302A083ED90E3215080409040E1F700C00000CE
S11302B0FF91EF91BF91AF919F918F917F916F913A
S11302C05F914F913F912F910F900FBE0F901F9010
S11302D018951F920F920FB60F9211248F93EF93DC
S11302E0FF938091790080934C01EAE7F0E08081EC
S11302F080618083FF91EF918F910F900FBE0F90DB
S11303001F90189597FB072E16F4009407D077FDDD
S113031009D00E94960107FC05D03EF49095819582
S11303209F4F0895709561957F4F0895AA1BBB1B3D
S113033051E107C0AA1FBB1FA617B70710F0A61BE1
S1130340B70B881F991F5A95A9F780959095BC0102
S10B0350CD010895F894FFCFDC
S1130358312E204C65657220706F74656E6369F385
S11303686D6574726F2E00322E20456E7669617247
S11303782041534349492E00456E747261646120DB
S1130388696E76E16C6964612C20696E67726573C5
S10D0398652031206F20322E000092
S9030000FC
