S00D00004C616230362E73726563A2
S11300000C9434000C9451000C9451000C94510045
S11300100C9451000C9451000C9451000C94510018
S11300200C9451000C9451000C9451000C94510008
S11300300C9451000C9451000C9451000C945100F8
S11300400C9451000C9451000C943D010C945100FB
S11300500C9451000C9494010C9451000C94510094
S11300600C9451000C94510011241FBECFEFD8E022
S1130070DEBFCDBF11E0A0E0B1E0EEEEF3E002C0E0
S113008005900D92A03AB107D9F721E0A0EAB1E0BA
S113009001C01D92A33AB207E1F70E94A8000C9494
S11300A0F5010C940000CF93DF938AB18E7F8AB957
S11300B08AB181608AB9C0ECD0E01882A1ECB0E0CA
S11300C01C92E2ECF0E01082888188838C9188692C
S11300D08C9380818660808387E690E09093C5004E
S11300E08093C400DF91CF910895ECE7F0E0108293
S11300F0808180668083EAE7F0E0108280818068F6
S11301008083808188608083808187608083089574
S11301109091C00095FFFCCF8093C60008950F9383
S11301201F93CF938C01C0E003C00E948800CF5F6F
S1130130F801EC0FF11D80818111F7CF8AE00E9454
S113014088008DE00E948800CF911F910F9108953F
S1130150F8940E9453000E947500789480910001E5
S11301608130A1F51092A00181E091E00E948F00FE
S113017088E191E00E948F008091A001813321F0F9
S11301808091A0018233C1F78091A001813319F0DD
S1130190823391F01BC0EAE7F0E0808180648083C1
S11301A0109200012FEF89EF90E0215080409040A1
S11301B0E1F700C000000AC089E291E00E948F00CC
S11301C010920001809100018823E1F381E0809383
S11301D0000188E391E00E948F00C0CFCF93DF93AA
S11301E02DEC829FC12D1124C695C695C695CC0FC2
S11301F09C2F990F990FC90F982F9C1BC92F90E022
S11302008C1B9109EAE0F0E0BF010E94CD01629FDE
S1130210D12D1124D695D695D695DD0F8D2F880F27
S1130220880FD80F862F8D1BD82F7727CB018D1BD6
S11302309109BF010E94CD01629F812D11248695F1
S113024086958695880F282F220F220F820F681B10
S1130250862F805D0E94880080E38D0F0E948800B5
S113026080E38C0F0E9488008AE00E9488008DE061
S11302700E948800DF91CF9108951F920F920FB6CC
S11302800F9211242F933F934F935F936F937F9318
S11302908F939F93AF93BF93EF93FF938091C60087
S11302A08093A1018091A1018093A001809100011C
S11302B08130B1F48091A001813329F486E491E086
S11302C00E948F000DC08091A001823329F48FE534
S11302D091E00E948F0004C08FE791E00E948F009C
S11302E08091000181110FC08091A1018295880F36
S11302F0880F807C8BB98091A1018695869585B9FC
S113030081E080930001FF91EF91BF91AF919F91A4
S11303108F917F916F915F914F913F912F910F90AA
S11303200FBE0F901F9018951F920F920FB60F9249
S113033011242F933F934F935F936F937F938F93E6
S11303409F93AF93BF93EF93FF9380917900809332
S1130350A2010E94EE008091A2018295880F880F6D
S1130360807C8BB98091A2018695869585B9EAE750
S1130370F0E0808180618083FF91EF91BF91AF9124
S11303809F918F917F916F915F914F913F912F91A9
S11303900F900FBE0F901F90189597FB072E16F421
S11303A0009407D077FD09D00E94E10107FC05D035
S11303B03EF4909581959F4F0895709561957F4F78
S11303C00895AA1BBB1B51E107C0AA1FBB1FA61798
S11303D0B70710F0A61BB70B881F991F5A95A9F7EA
S11103E080959095BC01CD010895F894FFCF4F
S11303EE01312E204C65657220706F74656E6369E1
S11303FEF36D6574726F2E00322E20456E76696130
S113040E722041534349492E00496E6772657365E4
S113041E2041534349492E0045786974696E67201B
S113042E6C6F6F702E004C6579656E646F20706F03
S113043E74656E6369F36D6574726F2E2E2E004CA7
S113044E6579656E646F2041534349492064657331
S113045E6465207465726D696E616C2E2E2E004576
S113046E6E747261646120696E76E16C6964612EEA
S113047E20496E67726573652031206F20322E001D
S9030000FC
