S00D00004C616230362E73726563A2
S11300000C9434000C9446000C9446000C94460066
S11300100C9446000C9446000C9446000C94460044
S11300200C9446000C9446000C9446000C94460034
S11300300C9446000C9446000C9446000C94460024
S11300400C9446000C9446000C94AF000C944600AB
S11300500C9446000C94D2000C9446000C94460078
S11300600C9446000C94460011241FBECFEFD8E038
S1130070DEBFCDBF21E0A0E0B1E001C01D92A13000
S1130080B207E1F70E948A000C94EB000C94000084
S1130090CF93DF938AB18E7F8AB98AB181608AB99E
S11300A0C0ECD0E01882A1ECB0E01C92E2ECF0E0ED
S11300B01082888188838C9188698C938081866082
S11300C0808387E690E09093C5008093C400DF911D
S11300D0CF910895ECE7F0E0108280818066808300
S11300E0EAE7F0E010828081806880838081886004
S11300F08083808180648083808187608083808125
S11301008064808308959091C00095FFFCCF809314
S1130110C6000895F8940E9448000E946A007894EA
S1130120809100018295880F880F807C8BB9809123
S113013000018695869585B92FEF81EE94E02150D4
S113014080409040E1F700C00000809100010E94CF
S11301508300EAE7F0E0808180648083E1CF1F922E
S11301600F920FB60F9211242F938F939F93EF93B7
S1130170FF93E6ECF0E0808185B980818BB92FEFA5
S113018087EA91E6215080409040E1F700C00000EA
S1130190FF91EF919F918F912F910F900FBE0F9030
S11301A01F9018951F920F920FB60F9211248F93E0
S11301B0EF93FF938091790080930001EAE7F0E0E8
S11301C0808180618083FF91EF918F910F900FBEAA
S10D01D00F901F901895F894FFCFCC
S9030000FC
